{
  "contractName": "Donation",
  "abi": [
    {
      "anonymous": false,
      "inputs": [
        {
          "indexed": true,
          "name": "donator",
          "type": "address"
        },
        {
          "indexed": true,
          "name": "hash",
          "type": "string"
        }
      ],
      "name": "UpdateHash",
      "type": "event"
    },
    {
      "constant": false,
      "inputs": [
        {
          "name": "_hash",
          "type": "string"
        }
      ],
      "name": "updateHash",
      "outputs": [],
      "payable": false,
      "stateMutability": "nonpayable",
      "type": "function"
    },
    {
      "constant": true,
      "inputs": [],
      "name": "getHash",
      "outputs": [
        {
          "name": "",
          "type": "string"
        }
      ],
      "payable": false,
      "stateMutability": "view",
      "type": "function"
    }
  ],
  "bytecode": "0x608060405234801561001057600080fd5b50610441806100206000396000f3fe608060405234801561001057600080fd5b5060043610610053576000357c01000000000000000000000000000000000000000000000000000000009004806392dea92214610058578063d13319c414610113575b600080fd5b6101116004803603602081101561006e57600080fd5b810190808035906020019064010000000081111561008b57600080fd5b82018360208201111561009d57600080fd5b803590602001918460018302840111640100000000831117156100bf57600080fd5b91908080601f016020809104026020016040519081016040528093929190818152602001838380828437600081840152601f19601f820116905080830192505050505050509192919290505050610196565b005b61011b610292565b6040518080602001828103825283818151815260200191508051906020019080838360005b8381101561015b578082015181840152602081019050610140565b50505050905090810190601f1680156101885780820380516001836020036101000a031916815260200191505b509250505060405180910390f35b806000803373ffffffffffffffffffffffffffffffffffffffff1673ffffffffffffffffffffffffffffffffffffffff16815260200190815260200160002090805190602001906101e8929190610370565b50806040518082805190602001908083835b60208310151561021f57805182526020820191506020810190506020830392506101fa565b6001836020036101000a03801982511681845116808217855250505050505090500191505060405180910390203373ffffffffffffffffffffffffffffffffffffffff167f839d27ea140a3cff9ee46223e237b92302f73ddd0abd2ef0416c6eb44888604660405160405180910390a350565b60606000803373ffffffffffffffffffffffffffffffffffffffff1673ffffffffffffffffffffffffffffffffffffffff1681526020019081526020016000208054600181600116156101000203166002900480601f0160208091040260200160405190810160405280929190818152602001828054600181600116156101000203166002900480156103665780601f1061033b57610100808354040283529160200191610366565b820191906000526020600020905b81548152906001019060200180831161034957829003601f168201915b5050505050905090565b828054600181600116156101000203166002900490600052602060002090601f016020900481019282601f106103b157805160ff19168380011785556103df565b828001600101855582156103df579182015b828111156103de5782518255916020019190600101906103c3565b5b5090506103ec91906103f0565b5090565b61041291905b8082111561040e5760008160009055506001016103f6565b5090565b9056fea165627a7a723058201ca4a5855fc0546ed8b8ddd7064ed01c2c7d79fc2c7881dfe8a27688670edabd0029",
  "source": "pragma solidity ^0.5.3;\ncontract Donation {\n    mapping(address => string) donatorHash;\n    mapping(address => Item) donator;\n\n    struct Item {\n        string itemType;\n        uint256 amount;\n    }\n\n    event UpdateHash(address indexed donator, string indexed hash);\n\n    function updateHash(string memory _hash) public {\n        donatorHash[msg.sender] = _hash;\n        emit UpdateHash(msg.sender, _hash);\n    }\n\n    function getHash() public view returns (string memory) {\n        return donatorHash[msg.sender];\n    }\n\n}\n",
  "sourcePath": "/Users/Leo/donation/contracts/Donation.sol",
  "compiler": {
    "name": "solc",
    "version": "0.5.3+commit.10d17f24.Emscripten.clang"
  },
  "schemaVersion": "3.0.23",
  "updatedAt": "2020-02-15T17:01:00.390Z",
  "networkType": "ethereum",
  "devdoc": {
    "methods": {}
  },
  "userdoc": {
    "methods": {}
  }
}